:100000000C9434000C943E000C943E000C943E0082
:100010000C943E000C943E000C943E000C943E0068
:100020000C943E000C943E000C943E000C943E0058
:100030000C943E000C943E000C943E000C943E0048
:100040000C943E000C943E000C945A000C943E001C
:100050000C943E000C943E000C943E000C943E0028
:100060000C943E000C943E0011241FBECFEFD8E04C
:10007000DEBFCDBF0E9471000C9486000C9400007E
:1000800088E98093C10086E08093C2001092C50089
:100090008FEC8093C40008958091C00087FFFCCF4F
:1000A0008091C60008959091C00095FFFCCF809389
:1000B000C60008951F920F920FB60F9211248F93CE
:1000C000EF93FF93F894E6ECF0E080818F5F8083FC
:1000D0007894FF91EF918F910F900FBE0F901F902A
:1000E000189582E08AB981E084B90E944000789432
:1000F00091E085B1892785B92FEF34E38CE0215059
:1001000030408040E1F700C00000F3CFF894FFCF0B
:00000001FF
