:100000000C9434000C9449000C9449000C94490061
:100010000C9449000C9449000C9449000C9449003C
:100020000C9449000C9449000C9449000C9449002C
:100030000C9449000C9449000C9449000C9449001C
:100040000C9449000C9449000C9449000C9449000C
:100050000C9449000C9449000C9449000C944900FC
:100060000C9449000C94490011241FBECFEFD8E036
:10007000DEBFCDBF11E0A0E0B1E0E0E4F1E002C0FE
:1000800005900D92A031B107D9F70E944B000C9456
:100090009E000C940000CF93DF93CDB7DEB760973E
:1000A0000FB6F894DEBF0FBECDBF80E1E0E0F1E017
:1000B000DE01119601900D928A95E1F78FE387B9E1
:1000C00081E08AB92098289AF999FECF85E090E0DE
:1000D00092BD81BDF89A80B590E020E030E065E007
:1000E00070E0189917C04FEF50E7E2E041505040E0
:1000F000E040E1F700C000002115310569F40196E8
:10010000F999FECF72BD61BD80BDFA9AF99A21E0DE
:1001100030E002C020E030E0FC01EF70FF2741E05A
:1001200050E04C0F5D1FE40FF51F40814F7348B93D
:100130005898408146FFD5CF589AD3CFF894FFCF37
:100140003F065B4F666D7D077F6F777C395E797107
:00000001FF
