:100000000C9434000C9449000C9449000C94490061
:100010000C9449000C9449000C9449000C9449003C
:100020000C9449000C9449000C9449000C9449002C
:100030000C9449000C9449000C9449000C9449001C
:100040000C9449000C9449000C9478000C944900DD
:100050000C9449000C9449000C9449000C944900FC
:100060000C9449000C94490011241FBECFEFD8E036
:10007000DEBFCDBF11E0A0E0B1E0E0ECF1E002C0F6
:1000800005900D92AE32B107D9F70E94BE000C94D4
:10009000DE000C94000088E98093C10086E0809324
:1000A000C2001092C5008FEC8093C4000895809127
:1000B000C00087FFFCCF8091C60008959091C000DA
:1000C00095FFFCCF8093C60008950F931F93CF93A5
:1000D0008C01C0E0F801EC0FF11D8081882321F034
:1000E0000E945E00CF5FF6CFCF911F910F910895D0
:1000F0001F920F920FB60F9211242F933F934F939D
:100100005F936F937F938F939F93AF93BF93CF939F
:10011000EF93FF93F894C091C6008C2F0E945E006D
:1001200080E091E00E946500C33551F028F4C134AD
:1001300089F0C23549F00FC0C23731F0C33759F4E6
:10014000289A8BE091E003C0289884E191E00E9416
:10015000650001C0FFCF7894FF91EF91CF91BF91DF
:10016000AF919F918F917F916F915F914F913F914F
:100170002F910F900FBE0F901F90189582E08AB9B3
:1001800081E084B90E944B0078949FE088E10FB62B
:10019000F894A895809360000FBE909360008EE164
:1001A00091E00E946500A8952FEF84E39CE0215028
:1001B00080409040E1F700C00000F5CFF894FFCFF9
:1001C00020707265737365640A0D004C4544206F9E
:1001D0006E0A0D004C4544206F66660A0D0053748C
:0E01E0006172742070726F6772616D0A0D009B
:00000001FF
