:100000000C9434000C943E000C943E000C943E0082
:100010000C943E000C943E000C943E000C943E0068
:100020000C943E000C943E000C943E000C943E0058
:100030000C943E000C943E000C943E000C943E0048
:100040000C943E000C943E000C943E000C943E0038
:100050000C943E000C943E000C943E000C94400026
:100060000C943E000C943E0011241FBECFEFD8E04C
:10007000DEBFCDBF0E9450000C9459000C940000CC
:100080001F920F920FB60F92112400B605FE02C008
:10009000289A01C028980F900FBE0F901F901895B6
:1000A00081E084B985B988E080BF10927B007894A4
:0600B000FFCFF894FFCF22
:00000001FF
