:100000000C9434000C943E000C943E000C943E0082
:100010000C943E000C943E000C943E000C943E0068
:100020000C943E000C943E000C943E000C943E0058
:100030000C943E000C943E000C943E000C943E0048
:100040000C943E000C943E000C943E000C943E0038
:100050000C943E000C943E000C943E000C943E0028
:100060000C943E000C943E0011241FBECFEFD8E04C
:10007000DEBFCDBF0E946A000C9477000C94000094
:100080008093BA0084EC8093BC00089584EC809344
:10009000BC008091BC0087FFFCCF08958093BB001B
:1000A00084EC8093BC008091BC0087FFFCCF089556
:1000B00084EC8093BC008091BC0087FFFCCF8091D2
:1000C000BB008091BB000895ECEBF0E080818B7B5E
:1000D000808308958FEF8AB980E20E9440000E94D9
:1000E00046000E9458008BB90E946400F8CFF89433
:0200F000FFCF40
:00000001FF
