:100000000C9434000C943E000C943E000C943E0082
:100010000C943E000C943E000C943E000C943E0068
:100020000C943E000C943E000C943E000C943E0058
:100030000C943E000C943E000C943E000C943E0048
:100040000C943E000C943E000C943E000C943E0038
:100050000C943E000C943E000C943E000C943E0028
:100060000C943E000C943E0011241FBECFEFD8E04C
:10007000DEBFCDBF0E9440000C945C000C940000D9
:1000800081E084B9579880E090E021E04F9903C067
:1000900080E090E0FBCF3FEF40E752E0315040403E
:1000A0005040E1F700C00000009781F785B182273A
:0C00B00085B981E090E0EACFF894FFCF22
:00000001FF
