:1000000010C022C021C020C01FC01EC01DC01CC007
:100010001BC01AC019C018C017C016C015C014C024
:1000200013C011241FBECFE5D1E0DEBFCDBF10E06D
:10003000A0E6B0E0ECE6F1E002C005900D92A0373A
:10004000B107D9F756D090C0DBCFD69AD49ADC9AB4
:10005000DE9A8FEF8FB98AE28DB980EF8EB908955D
:10006000DE9ADC9ADC9BFECFDE988DE08A95F1F774
:100070000000DC98DE9A0895DE98DC9ACC9BFECFD7
:100080008DE08A95F1F70000DE9A8AE08A95F1F713
:1000900000C00895DC988EB98DE08A95F1F70000D4
:1000A000689ACC9BFECF8AE08A95F1F700C0689AE7
:1000B000769BF2CF8DE08A95F1F700008FB19FEF2C
:1000C0009FB908958FB980EFE5DFDE988EEFE2DF0C
:1000D000DE9A0895CF93DF93D82FDE9880EFDADF92
:1000E000C82FDE9ADFB98EEFD5DF8C2FDF91CF914D
:1000F0000895CF93DF93CDB7DEB760970FB6F8942E
:10010000DEBF0FBECDBF80E1E0E6F0E0DE0111967C
:1001100001900D928A95E1F7D298DA9A96DFA0DFE6
:1001200080E2D0DF8981CEDFA7DF10E0CA9BFECF5F
:100130001F5F103108F010E093DF80E2C3DFE1E0E1
:10014000F0E0EC0FFD1FE10FF11D17FDFA95808126
:10015000B9DF92DF2FEF89E698E12150804090408F
:0C016000E1F700C00000E2CFF894FFCFF0
:10016C003F065B4F666D7D077F6F777C395E7971DB
:00000001FF
