:100000000C9434000C943E000C943E000C943E0082
:100010000C943E000C943E000C943E000C943E0068
:100020000C943E000C943E000C943E000C943E0058
:100030000C943E000C943E000C943E000C943E0048
:100040000C943E000C943E000C943E000C943E0038
:100050000C943E000C943E000C943E000C943E0028
:100060000C943E000C943E0011241FBECFEFD8E04C
:10007000DEBFCDBF0E9451000C9459000C940000CB
:1000800084B1837D84B9249A80E48CBD08958EBDAB
:100090000DB407FEFDCF08950DB407FEFDCF8EB55C
:1000A00008958FEF8AB90E9440000E944C008BB9DE
:0600B000FCCFF894FFCF25
:00000001FF
