:100000000C9434000C943E000C943E000C943E0082
:100010000C943E000C943E000C943E000C943E0068
:100020000C943E000C943E000C943E000C943E0058
:100030000C943E000C943E000C943E000C943E0048
:100040000C943E000C943E000C943E000C943E0038
:100050000C943E000C943E000C943E000C943E0028
:100060000C943E000C943E0011241FBECFEFD8E04C
:10007000DEBFCDBF0E945A000C946A000C940000B1
:1000800088E18093C10086E08093C2001092C50091
:100090008FEC8093C40008958091C00087FFFCCF4F
:1000A0008091C60008959091C00095FFFCCF809389
:1000B000C60008950E9440000E944C000E94530018
:1000C0002FEF83ED90E3215080409040E1F700C096
:0800D0000000F2CFF894FFCF0D
:00000001FF
