:100000000C9434000C9449000C9449000C94490061
:100010000C9449000C9449000C9449000C9449003C
:100020000C9449000C9449000C9449000C9449002C
:100030000C9449000C9449000C9449000C9449001C
:100040000C9449000C9449000C9449000C9449000C
:100050000C9449000C9449000C9449000C944900FC
:100060000C9449000C94490011241FBECFEFD8E036
:10007000DEBFCDBF11E0A0E0B1E0E2E1F1E002C0FF
:1000800005900D92A031B107D9F70E944B000C9456
:1000900087000C940000CF93DF93CDB7DEB7609755
:1000A0000FB6F894DEBF0FBECDBF80E1E0E0F1E017
:1000B000DE01119601900D928A95E1F78FEF8AB9D2
:1000C0002098289A20E030E080E090E018990EC057
:1000D0004FEF50E762E0415050406040E1F700C010
:1000E0000000892B31F42F5F3F4F03C080E090E088
:1000F00002C081E090E0F901EF70FF2741E050E09D
:100100004C0F5D1FE40FF51F40814BB9DFCFF89412
:02011000FFCF1F
:100112003F065B4F666D7D077F6F777C395E797135
:00000001FF
