:100000000C9434000C9449000C9449000C94490061
:100010000C9449000C9449000C9449000C9449003C
:100020000C9449000C9449000C9449000C9449002C
:100030000C9449000C9449000C9449000C9449001C
:100040000C9449000C9449000C9449000C9449000C
:100050000C9449000C9449000C9449000C944900FC
:100060000C9449000C94490011241FBECFEFD8E036
:10007000DEBFCDBF11E0A0E0B1E0EAE2F6E002C0F1
:1000800005900D92A631B107D9F70E940E010C948C
:1000900013030C94000088E18093C10086E08093F4
:1000A000C2001092C5008FEC8093C4000895809127
:1000B000C00087FFFCCF8091C60008959091C000DA
:1000C00095FFFCCF8093C60008950F931F93CF93A5
:1000D0008C01C0E0F801EC0FF11D8081882321F034
:1000E0000E945E00CF5FF6CFCF911F910F910895D0
:1000F000ECE7F0E0808180648083EAE7F0E08081D3
:1001000087688083089590917C00987F8770892B01
:1001100080937C0080917A00806480937A00809143
:100120007A0086FDFCCF8091780090917900089547
:100130008F929F92AF92BF92EF92FF920F931F9375
:10014000CF93DF93CDB7DEB769970FB6F894DEBFD4
:100150000FBECDBF4B015C017A010E94E2018B0111
:10016000072E000C880B990B0E941A029B01AC0110
:10017000C501B4010E94750120E030E048EC52E472
:100180000E94A6020E94E2019B01FE0131965F01DE
:100190008AE0882E912CA5014E1B5F0BCA01011528
:1001A000110551F0C801B4010E944D01805DD501D7
:1001B0008D935D018B01EFCFE40FF51FD701BE01D9
:1001C00031976E177F0719F010811D93F9CF452BDA
:1001D00029F480E3F701808381E090E0F701E80FE4
:1001E000F91F8EE28083C9016AE070E00E944D0130
:1001F000605D6183805D8283138269960FB6F89497
:10020000DEBF0FBECDBFDF91CF911F910F91FF9049
:10021000EF90BF90AF909F908F900895CF93DF9312
:10022000CDB7DEB7A0970FB6F894DEBF0FBECDBF37
:1002300082E08AB90E944B000E94780085E00E940B
:100240008300BC0180E090E00E94180220E030E0D2
:1002500040EA50E40E94A60220E030E040E85AE381
:100260000E94A602AE014F5F5F4F0E94980080E09F
:1002700091E00E946500CE0101960E94650080E138
:1002800091E00E9465002FEF87EA91E621508040BF
:100290009040E1F700C00000D1CF97FB072E16F485
:1002A000009407D077FD09D00E94610107FC05D0BA
:1002B0003EF4909581959F4F0895709561957F4F7D
:1002C0000895AA1BBB1B51E107C0AA1FBB1FA6179D
:1002D000B70710F0A61BB70B881F991F5A95A9F7EF
:1002E00080959095BC01CD0108955058BB27AA2751
:1002F0000E948D010C946C020E945E0238F00E94F4
:10030000650220F039F49F3F19F426F40C945B0247
:100310000EF4E095E7FB0C945502E92F0E947D0254
:1003200058F3BA17620773078407950720F079F42A
:10033000A6F50C949F020EF4E0950B2EBA2FA02D7B
:100340000B01B90190010C01CA01A0011124FF2782
:10035000591B99F0593F50F4503E68F11A16F0407D
:10036000A22F232F342F4427585FF3CF469537957C
:100370002795A795F0405395C9F77EF41F16BA0B41
:10038000620B730B840BBAF09150A1F0FF0FBB1FEF
:10039000661F771F881FC2F70EC0BA0F621F731F38
:1003A000841F48F4879577956795B795F7959E3F95
:1003B00008F0B0CF9395880F08F09927EE0F979526
:1003C000879508950E94E9016894B1110C94A002E8
:1003D00008950E94850288F09F5798F0B92F9927B9
:1003E000B751B0F0E1F0660F771F881F991F1AF020
:1003F000BA95C9F714C0B13091F00E949F02B1E0E4
:1004000008950C949F02672F782F8827B85F39F0E2
:10041000B93FCCF3869577956795B395D9F73EF4B8
:1004200090958095709561957F4F8F4F9F4F089560
:10043000E89409C097FB3EF490958095709561957E
:100440007F4F8F4F9F4F9923A9F0F92F96E9BB2734
:100450009395F695879577956795B795F111F8CFB0
:10046000FAF4BB0F11F460FF1BC06F5F7F4F8F4F1B
:100470009F4F16C0882311F096E911C0772321F011
:100480009EE8872F762F05C0662371F096E8862FA9
:1004900070E060E02AF09A95660F771F881FDAF700
:1004A000880F9695879597F9089597F99F6780E843
:1004B00070E060E008959FEF80EC089500240A94B6
:1004C0001616170618060906089500240A9412162F
:1004D0001306140605060895092E0394000C11F462
:1004E000882352F0BB0F40F4BF2B11F460FF04C00F
:1004F0006F5F7F4F8F4F9F4F089557FD9058440F68
:10050000551F59F05F3F71F04795880F97FB991F72
:1005100061F09F3F79F0879508951216130614062F
:10052000551FF2CF4695F1DF08C0161617061806BC
:10053000991FF1CF86957105610508940895E89497
:10054000BB2766277727CB0197F908950E94B90248
:100550000C946C020E945E0238F00E94650220F04A
:10056000952311F00C9455020C945B0211240C9409
:10057000A0020E947D0270F3959FC1F3950F50E099
:10058000551F629FF001729FBB27F00DB11D639F45
:10059000AA27F00DB11DAA1F649F6627B00DA11DEB
:1005A000661F829F2227B00DA11D621F739FB00D91
:1005B000A11D621F839FA00D611D221F749F332701
:1005C000A00D611D231F849F600D211D822F762F9A
:1005D0006A2F11249F5750409AF0F1F088234AF077
:1005E000EE0FFF1FBB1F661F771F881F91505040E3
:1005F000A9F79E3F510580F00C9455020C94A0027F
:100600005F3FE4F3983ED4F3869577956795B79569
:10061000F795E7959F5FC1F7FE2B880F911D969583
:0A062000879597F90895F894FFCF2D
:10062A00416E616C6F6720496E707574203D2000C1
:06063A0020560A0D20000D
:00000001FF
