:100000000C9434000C9453000C9451000C94510047
:100010000C9451000C9451000C9451000C9451001C
:100020000C9451000C9451000C9451000C9451000C
:100030000C9451000C9451000C9451000C945100FC
:100040000C9451000C9451000C9451000C945100EC
:100050000C9451000C9451000C9451000C945100DC
:100060000C9451000C94510011241FBECFEFD8E026
:10007000DEBFCDBF11E0A0E0B1E0E2E7F1E002C0F9
:1000800005900D92A031B107D9F721E0A0E1B1E0D0
:1000900001C01D92A231B207E1F70E9477000C94D3
:1000A000B7000C9400001F920F920FB60F9211240C
:1000B0002F938F939F93F8942FEF80E792E0215036
:1000C00080409040E1F700C00000809110019091C5
:1000D00011010196909311018093100178949F91E2
:1000E0008F912F910F900FBE0F901F901895CF9367
:1000F000DF93CDB7DEB760970FB6F894DEBF0FBEC3
:10010000CDBF80E1E0E0F1E0DE01119601900D92BB
:100110008A95E1F78FE384B980E88AB952985A9AB0
:1001200082E08093690081E08DBB7894E0911001BA
:10013000F0911101EF70FF2781E090E08C0F9D1F7F
:10014000E80FF91F80818F7385B95F98E0911001E6
:10015000F0911101EF70FF2781E090E08C0F9D1F5F
:10016000E80FF91F808186FFE1CF5F9ADFCFF89417
:02017000FFCFBF
:100172003F065B4F666D7D077F6F777C395E7971D5
:00000001FF
