:100000000C9434000C9449000C9449000C94490061
:100010000C9449000C9449000C9449000C9449003C
:100020000C9449000C9449000C9449000C9449002C
:100030000C9449000C9449000C9449000C9449001C
:100040000C9449000C9449000C9449000C9449000C
:100050000C9449000C9449000C9449000C944900FC
:100060000C9449000C94490011241FBECFEFD8E036
:10007000DEBFCDBF11E0A0E0B1E0E0ECF1E002C0F6
:1000800005900D92AE30B107D9F70E9487000C940D
:10009000DE000C94000088E18093C10086E080932C
:1000A000C2001092C5008FEC8093C4000895809127
:1000B000C00087FFFCCF8091C60008959091C000DA
:1000C00095FFFCCF8093C60008950F931F93CF93A5
:1000D0008C01C0E0F801EC0FF11D8081882321F034
:1000E0000E945E00CF5FF6CFCF911F910F910895D0
:1000F0008CE284B983E58CBD08958EBD0DB407FEF6
:10010000FDCF08950DB407FEFDCF8EB50895CF93B2
:10011000DF9300D000D01F92CDB7DEB782E08AB95E
:100120000E944B000E94780084E0B82ECC24C39437
:10013000D12C20E2A22EB5B88FEF0E947D002A9824
:100140000E948200E82E8FE39CE90197F1F700C03E
:10015000000080E091E00E94650000E010E0F12CDA
:1001600083E091E00E94650080E3800F8983AA828A
:100170001B82CE0101960E946500C601002E02C0BE
:10018000880F991F0A94E2F78E219F21892B19F07D
:1001900089E091E002C08BE091E00E9465000F5F72
:1001A0001F4F04301105E1F69FEF27EA81E69150D9
:1001B00020408040E1F700C00000BDCFF894FFCFA1
:0E01C0000A0D000A0D444950003100300000C5
:00000001FF
