:100000000C9434000C9451000C9451000C94510049
:100010000C9451000C9451000C9451000C9451001C
:100020000C9451000C9451000C9451000C9453000A
:100030000C9451000C9451000C9451000C945100FC
:100040000C9451000C9451000C9451000C945100EC
:100050000C9451000C9451000C9451000C945100DC
:100060000C9451000C94510011241FBECFEFD8E026
:10007000DEBFCDBF11E0A0E0B1E0E2E5F1E002C0FB
:1000800005900D92A031B107D9F721E0A0E1B1E0D0
:1000900001C01D92A131B207E1F70E9468000C94E3
:1000A000A7000C9400001F920F920FB60F9211241C
:1000B0008F93809110018F5F8093100110928500C3
:1000C000109284008F910F900FBE0F901F90189583
:1000D000CF93DF93CDB7DEB760970FB6F894DEBF4E
:1000E0000FBECDBF80E1E0E0F1E0DE0111960190AE
:1000F0000D928A95E1F78FE387B981E08AB98DE0A7
:100100008093810086E296E2909389008093880034
:1001100082E080936F007894809110018F70E1E00D
:10012000F0E0EC0FFD1FE80FF11D80818F7388B99F
:100130005898809110018F70E1E0F0E0EC0FFD1F06
:10014000E80FF11D808186FFE7CF589AE5CFF8943C
:02015000FFCFDF
:100152003F065B4F666D7D077F6F777C395E7971F5
:00000001FF
