:100000000C9434000C9449000C9449000C94490061
:100010000C9449000C9449000C9449000C9449003C
:100020000C9449000C9449000C9449000C9449002C
:100030000C9449000C9449000C9449000C9449001C
:100040000C9449000C9449000C9449000C9449000C
:100050000C9449000C9449000C9449000C944900FC
:100060000C9449000C94490011241FBECFEFD8E036
:10007000DEBFCDBF11E0A0E0B1E0E6E1F1E002C0FB
:1000800005900D92A031B107D9F70E9451000C9450
:1000900089000C9400008EE284B9299883E58CBD18
:1000A0000895CF93DF93CDB7DEB760970FB6F8947E
:1000B000DEBF0FBECDBF80E1E0E0F1E0DE011196D2
:1000C00001900D928A95E1F70E944B0080E090E04C
:1000D000FC01EF70FF2721E030E02C0F3D1FE20F05
:1000E000F31F20812EBD0DB407FEFDCF299AEFE14D
:1000F000FEE43197F1F700C0000029980196FFEF68
:1001000023ED30E3F15020403040E1F700C0000023
:06011000DFCFF894FFCFE1
:100116003F065B4F666D7D077F6F777C395E797131
:00000001FF
