:100000000C9434000C943E000C943E000C943E0082
:100010000C943E000C943E000C943E000C943E0068
:100020000C943E000C943E000C943E000C943E0058
:100030000C943E000C943E000C943E000C943E0048
:100040000C943E000C943E000C943E000C943E0038
:100050000C943E000C943E000C943E000C943E0028
:100060000C943E000C943E0011241FBECFEFD8E04C
:10007000DEBFCDBF0E9440000C947D000C940000B8
:1000800080E48AB981E884BD85E085BD30E420E85C
:1000900090EC8FEF17BC4FEF51EE64E041505040B1
:1000A0006040E1F700C0000037BD4FEF51EE64E063
:1000B000415050406040E1F700C0000027BD4FEFC5
:1000C00051EE64E0415050406040E1F700C0000054
:1000D00097BD4FEF51EE64E0415050406040E1F772
:1000E00000C0000087BD4FEF51EE64E0415050402A
:0E00F0006040E1F700C00000CDCFF894FFCFD4
:00000001FF
